{
  "transactions": [
    {
      "hash": "0xc48567ab53221dafa2a5e271e7a9f76eae9aa8de2508cf4c7d00769be2bb4685",
      "transactionType": "CALL",
      "contractName": null,
      "contractAddress": "0x82bdad4324e2e36c351fc9a74791ded3e0d31f5a",
      "function": "redeemPositions(address,bytes32,bytes32,uint256[])",
      "arguments": [
        "0x64dc93Ec94fb5D019C903703eB2deEe9dc0D25b2",
        "0x0000000000000000000000000000000000000000000000000000000000000000",
        "0xbe8f0e52342977390a34708d20ee76a7e0b602b56e9578d3f45aa99950e16dea",
        "[1, 2]"
      ],
      "transaction": {
        "from": "0x859c43d69021eb1784a1843e1adf8c999cf066a2",
        "to": "0x82bdad4324e2e36c351fc9a74791ded3e0d31f5a",
        "gas": "0xf44c",
        "value": "0x0",
        "input": "0x01b7037c00000000000000000000000064dc93ec94fb5d019c903703eb2deee9dc0d25b20000000000000000000000000000000000000000000000000000000000000000be8f0e52342977390a34708d20ee76a7e0b602b56e9578d3f45aa99950e16dea0000000000000000000000000000000000000000000000000000000000000080000000000000000000000000000000000000000000000000000000000000000200000000000000000000000000000000000000000000000000000000000000010000000000000000000000000000000000000000000000000000000000000002",
        "nonce": "0x2",
        "chainId": "0x14a34"
      },
      "additionalContracts": [],
      "isFixedGasLimit": false
    }
  ],
  "receipts": [
    {
      "status": "0x1",
      "cumulativeGasUsed": "0x4d0054",
      "logs": [
        {
          "address": "0x82bdad4324e2e36c351fc9a74791ded3e0d31f5a",
          "topics": [
            "0x2682012a4a4f1973119f1c9b90745d1bd91fa2bab387344f044cb3586864d18d",
            "0x000000000000000000000000859c43d69021eb1784a1843e1adf8c999cf066a2",
            "0x00000000000000000000000064dc93ec94fb5d019c903703eb2deee9dc0d25b2",
            "0x0000000000000000000000000000000000000000000000000000000000000000"
          ],
          "data": "0xbe8f0e52342977390a34708d20ee76a7e0b602b56e9578d3f45aa99950e16dea00000000000000000000000000000000000000000000000000000000000000600000000000000000000000000000000000000000000000000000000000000000000000000000000000000000000000000000000000000000000000000000000200000000000000000000000000000000000000000000000000000000000000010000000000000000000000000000000000000000000000000000000000000002",
          "blockHash": "0x116c9a52916ffc0dbeec98f388a09fd3bfb260e829fffb6fa68b832ccf0bff71",
          "blockNumber": "0x17701d2",
          "transactionHash": "0xc48567ab53221dafa2a5e271e7a9f76eae9aa8de2508cf4c7d00769be2bb4685",
          "transactionIndex": "0x15",
          "logIndex": "0xa",
          "removed": false
        }
      ],
      "logsBloom": "0x00000000000000000000000000400000000000000000000000000000000000000000200004000000000000000000010000000000000000000000000000000000000000000000000000000000000000000000000008000000000000000000000008000000020000000000000000000800000000000000000000000000000000000002000000001000000000000000000000000000000000400000000000000000000000000000000000020000000000000000000200000000000000000000000000000000000000000000000000000000000000000000000000000000000020000000000000000000000000000000000000000000000000000200000000000000",
      "type": "0x0",
      "transactionHash": "0xc48567ab53221dafa2a5e271e7a9f76eae9aa8de2508cf4c7d00769be2bb4685",
      "transactionIndex": "0x15",
      "blockHash": "0x116c9a52916ffc0dbeec98f388a09fd3bfb260e829fffb6fa68b832ccf0bff71",
      "blockNumber": "0x17701d2",
      "gasUsed": "0xa70b",
      "effectiveGasPrice": "0xf441e",
      "from": "0x859c43d69021eb1784a1843e1adf8c999cf066a2",
      "to": "0x82bdad4324e2e36c351fc9a74791ded3e0d31f5a",
      "contractAddress": null,
      "l1BaseFeeScalar": "0x44d",
      "l1BlobBaseFee": "0x7f745",
      "l1BlobBaseFeeScalar": "0xa118b",
      "l1Fee": "0x2bd2c60",
      "l1GasPrice": "0x29a6a",
      "l1GasUsed": "0x843"
    }
  ],
  "libraries": [],
  "pending": [],
  "returns": {},
  "timestamp": 1744921227,
  "chain": 84532,
  "commit": "afb5d3e"
}