{
  "transactions": [
    {
      "hash": "0x3bff2e09ad5481757ed628123d5cf1bc77829a7d79d3b072eacdfc3bf40580e3",
      "transactionType": "CALL",
      "contractName": null,
      "contractAddress": "0x82bdad4324e2e36c351fc9a74791ded3e0d31f5a",
      "function": "redeemPositions(address,bytes32,bytes32,uint256[])",
      "arguments": [
        "0x64dc93Ec94fb5D019C903703eB2deEe9dc0D25b2",
        "0x0000000000000000000000000000000000000000000000000000000000000000",
        "0xbe8f0e52342977390a34708d20ee76a7e0b602b56e9578d3f45aa99950e16dea",
        "[1, 2]"
      ],
      "transaction": {
        "from": "0x859c43d69021eb1784a1843e1adf8c999cf066a2",
        "to": "0x82bdad4324e2e36c351fc9a74791ded3e0d31f5a",
        "gas": "0x14a65",
        "value": "0x0",
        "input": "0x01b7037c00000000000000000000000064dc93ec94fb5d019c903703eb2deee9dc0d25b20000000000000000000000000000000000000000000000000000000000000000be8f0e52342977390a34708d20ee76a7e0b602b56e9578d3f45aa99950e16dea0000000000000000000000000000000000000000000000000000000000000080000000000000000000000000000000000000000000000000000000000000000200000000000000000000000000000000000000000000000000000000000000010000000000000000000000000000000000000000000000000000000000000002",
        "nonce": "0x1",
        "chainId": "0x14a34"
      },
      "additionalContracts": [],
      "isFixedGasLimit": false
    }
  ],
  "receipts": [
    {
      "status": "0x1",
      "cumulativeGasUsed": "0x45252c",
      "logs": [
        {
          "address": "0x82bdad4324e2e36c351fc9a74791ded3e0d31f5a",
          "topics": [
            "0xc3d58168c5ae7397731d063d5bbf3d657854427343f4c083240f7aacaa2d0f62",
            "0x000000000000000000000000859c43d69021eb1784a1843e1adf8c999cf066a2",
            "0x000000000000000000000000859c43d69021eb1784a1843e1adf8c999cf066a2",
            "0x0000000000000000000000000000000000000000000000000000000000000000"
          ],
          "data": "0xa42d220021770f6cf3cab8704d2f74797c69da1fe4d2ae5d85e522b9ecd258ab0000000000000000000000000000000000000000000000000000000000989680",
          "blockHash": "0xcb23110f8b6c2bf738545c8ece3c934a3b54a5b3946eb96fc7a533fb93e92b71",
          "blockNumber": "0x177007b",
          "transactionHash": "0x3bff2e09ad5481757ed628123d5cf1bc77829a7d79d3b072eacdfc3bf40580e3",
          "transactionIndex": "0x28",
          "logIndex": "0x15",
          "removed": false
        },
        {
          "address": "0x82bdad4324e2e36c351fc9a74791ded3e0d31f5a",
          "topics": [
            "0xc3d58168c5ae7397731d063d5bbf3d657854427343f4c083240f7aacaa2d0f62",
            "0x000000000000000000000000859c43d69021eb1784a1843e1adf8c999cf066a2",
            "0x000000000000000000000000859c43d69021eb1784a1843e1adf8c999cf066a2",
            "0x0000000000000000000000000000000000000000000000000000000000000000"
          ],
          "data": "0x85a71a25643e863258b3e74cfe323f4e64f09643a65bea93ce17e0f3e7f40fee0000000000000000000000000000000000000000000000000000000000989680",
          "blockHash": "0xcb23110f8b6c2bf738545c8ece3c934a3b54a5b3946eb96fc7a533fb93e92b71",
          "blockNumber": "0x177007b",
          "transactionHash": "0x3bff2e09ad5481757ed628123d5cf1bc77829a7d79d3b072eacdfc3bf40580e3",
          "transactionIndex": "0x28",
          "logIndex": "0x16",
          "removed": false
        },
        {
          "address": "0x64dc93ec94fb5d019c903703eb2deee9dc0d25b2",
          "topics": [
            "0xddf252ad1be2c89b69c2b068fc378daa952ba7f163c4a11628f55a4df523b3ef",
            "0x00000000000000000000000082bdad4324e2e36c351fc9a74791ded3e0d31f5a",
            "0x000000000000000000000000859c43d69021eb1784a1843e1adf8c999cf066a2"
          ],
          "data": "0x0000000000000000000000000000000000000000000000000000000000989680",
          "blockHash": "0xcb23110f8b6c2bf738545c8ece3c934a3b54a5b3946eb96fc7a533fb93e92b71",
          "blockNumber": "0x177007b",
          "transactionHash": "0x3bff2e09ad5481757ed628123d5cf1bc77829a7d79d3b072eacdfc3bf40580e3",
          "transactionIndex": "0x28",
          "logIndex": "0x17",
          "removed": false
        },
        {
          "address": "0x82bdad4324e2e36c351fc9a74791ded3e0d31f5a",
          "topics": [
            "0x2682012a4a4f1973119f1c9b90745d1bd91fa2bab387344f044cb3586864d18d",
            "0x000000000000000000000000859c43d69021eb1784a1843e1adf8c999cf066a2",
            "0x00000000000000000000000064dc93ec94fb5d019c903703eb2deee9dc0d25b2",
            "0x0000000000000000000000000000000000000000000000000000000000000000"
          ],
          "data": "0xbe8f0e52342977390a34708d20ee76a7e0b602b56e9578d3f45aa99950e16dea00000000000000000000000000000000000000000000000000000000000000600000000000000000000000000000000000000000000000000000000000989680000000000000000000000000000000000000000000000000000000000000000200000000000000000000000000000000000000000000000000000000000000010000000000000000000000000000000000000000000000000000000000000002",
          "blockHash": "0xcb23110f8b6c2bf738545c8ece3c934a3b54a5b3946eb96fc7a533fb93e92b71",
          "blockNumber": "0x177007b",
          "transactionHash": "0x3bff2e09ad5481757ed628123d5cf1bc77829a7d79d3b072eacdfc3bf40580e3",
          "transactionIndex": "0x28",
          "logIndex": "0x18",
          "removed": false
        }
      ],
      "logsBloom": "0x00000000000000000000000000400000000000000000000000000000000000000000200004000000000000000000010000000000000000000000000000002000000000000000000000000008000000000000000008000400000000000000000008000000020000000000000000000800000000000000000000000010000000100002000000005000000000000000000000000000000000400000000000000000000000000000000000020040000000000000000200000000000000000000000000000002000000000000000000000000000000000008000000000000000020000000400000000000000000000000000000000000000000000200080000000000",
      "type": "0x0",
      "transactionHash": "0x3bff2e09ad5481757ed628123d5cf1bc77829a7d79d3b072eacdfc3bf40580e3",
      "transactionIndex": "0x28",
      "blockHash": "0xcb23110f8b6c2bf738545c8ece3c934a3b54a5b3946eb96fc7a533fb93e92b71",
      "blockNumber": "0x177007b",
      "gasUsed": "0xe1ea",
      "effectiveGasPrice": "0xf4410",
      "from": "0x859c43d69021eb1784a1843e1adf8c999cf066a2",
      "to": "0x82bdad4324e2e36c351fc9a74791ded3e0d31f5a",
      "contractAddress": null,
      "l1BaseFeeScalar": "0x44d",
      "l1BlobBaseFee": "0x91467",
      "l1BlobBaseFeeScalar": "0xa118b",
      "l1Fee": "0x320df26",
      "l1GasPrice": "0x184c4",
      "l1GasUsed": "0x851"
    }
  ],
  "libraries": [],
  "pending": [],
  "returns": {},
  "timestamp": 1744920541,
  "chain": 84532,
  "commit": "afb5d3e"
}