{
  "transactions": [
    {
      "hash": "0x2ba7e6c23019a99154b18a20ff1303fec3d7842b11675abec9635d8bc5804349",
      "transactionType": "CALL",
      "contractName": null,
      "contractAddress": "0x82bdad4324e2e36c351fc9a74791ded3e0d31f5a",
      "function": "reportPayouts(bytes32,uint256[])",
      "arguments": [
        "0x9f63d38b3ae4882f8483be3b2264cdd639a73ee85dfb1d2af1e7b8506419632f",
        "[1, 0]"
      ],
      "transaction": {
        "from": "0x7144b814a473017612ac9f6bbd287147e500953f",
        "to": "0x82bdad4324e2e36c351fc9a74791ded3e0d31f5a",
        "gas": "0x1a0e6",
        "value": "0x0",
        "input": "0xc49298ac9f63d38b3ae4882f8483be3b2264cdd639a73ee85dfb1d2af1e7b8506419632f0000000000000000000000000000000000000000000000000000000000000040000000000000000000000000000000000000000000000000000000000000000200000000000000000000000000000000000000000000000000000000000000010000000000000000000000000000000000000000000000000000000000000000",
        "nonce": "0x1",
        "chainId": "0x14a34"
      },
      "additionalContracts": [],
      "isFixedGasLimit": false
    }
  ],
  "receipts": [
    {
      "status": "0x1",
      "cumulativeGasUsed": "0x3c5599",
      "logs": [
        {
          "address": "0x82bdad4324e2e36c351fc9a74791ded3e0d31f5a",
          "topics": [
            "0xb44d84d3289691f71497564b85d4233648d9dbae8cbdbb4329f301c3a0185894",
            "0xbe8f0e52342977390a34708d20ee76a7e0b602b56e9578d3f45aa99950e16dea",
            "0x0000000000000000000000007144b814a473017612ac9f6bbd287147e500953f",
            "0x9f63d38b3ae4882f8483be3b2264cdd639a73ee85dfb1d2af1e7b8506419632f"
          ],
          "data": "0x00000000000000000000000000000000000000000000000000000000000000020000000000000000000000000000000000000000000000000000000000000040000000000000000000000000000000000000000000000000000000000000000200000000000000000000000000000000000000000000000000000000000000010000000000000000000000000000000000000000000000000000000000000000",
          "blockHash": "0xef127013b14c629d6620735d1d40ee9cad3ee2707e6e3dd285b223fb2dc2fa64",
          "blockNumber": "0x176fd7b",
          "transactionHash": "0x2ba7e6c23019a99154b18a20ff1303fec3d7842b11675abec9635d8bc5804349",
          "transactionIndex": "0xf",
          "logIndex": "0x13",
          "removed": false
        }
      ],
      "logsBloom": "0x00000000000400000000000008000000000000000000000000000000000000000000000000000000000000000000000000000000000000000000000000000000000000000000000010000000000000000000000000000000010000000000000000800000000000000000000000000000000000000000000000000000000000000000000100001002400000000000000000000000000000000000000000000000000000000000000080020000000000000000000200000008000000000000000000000000000000000000000000000000000000000000000000000000000000000000000000000000000000000000000000080000001000000000000000000000",
      "type": "0x0",
      "transactionHash": "0x2ba7e6c23019a99154b18a20ff1303fec3d7842b11675abec9635d8bc5804349",
      "transactionIndex": "0xf",
      "blockHash": "0xef127013b14c629d6620735d1d40ee9cad3ee2707e6e3dd285b223fb2dc2fa64",
      "blockNumber": "0x176fd7b",
      "gasUsed": "0x12dd4",
      "effectiveGasPrice": "0xf4456",
      "from": "0x7144b814a473017612ac9f6bbd287147e500953f",
      "to": "0x82bdad4324e2e36c351fc9a74791ded3e0d31f5a",
      "contractAddress": null,
      "l1BaseFeeScalar": "0x44d",
      "l1BlobBaseFee": "0x11045f",
      "l1BlobBaseFeeScalar": "0xa118b",
      "l1Fee": "0x4858d31",
      "l1GasPrice": "0xb4d34",
      "l1GasUsed": "0x654"
    }
  ],
  "libraries": [],
  "pending": [],
  "returns": {},
  "timestamp": 1744919005,
  "chain": 84532,
  "commit": "afb5d3e"
}