{
  "transactions": [
    {
      "hash": "0xc4cb696bd309853d3a79ad48e5cce97d23d8098485851453bd11e59064bec0f6",
      "transactionType": "CREATE",
      "contractName": "MockUSDC",
      "contractAddress": "0x443ee7e41259b1178e6a271145fb396bbfc41299",
      "function": null,
      "arguments": null,
      "transaction": {
        "from": "0x9d0616e0da062907a0e64c44bd09d0a3dd2e3408",
        "gas": "0xaf787",
        "value": "0x0",
        "input": "0x60806040523480156200001157600080fd5b50604051806040016040528060098152602001684d6f636b205553444360b81b815250604051806040016040528060048152602001635553444360e01b8152508160039081620000629190620002ac565b506004620000718282620002ac565b5050506200008a33633b9aca006200009060201b60201c565b620003a0565b6001600160a01b038216620000c05760405163ec442f0560e01b8152600060048201526024015b60405180910390fd5b620000ce60008383620000d2565b5050565b6001600160a01b03831662000101578060026000828254620000f5919062000378565b90915550620001759050565b6001600160a01b03831660009081526020819052604090205481811015620001565760405163391434e360e21b81526001600160a01b03851660048201526024810182905260448101839052606401620000b7565b6001600160a01b03841660009081526020819052604090209082900390555b6001600160a01b0382166200019357600280548290039055620001b2565b6001600160a01b03821660009081526020819052604090208054820190555b816001600160a01b0316836001600160a01b03167fddf252ad1be2c89b69c2b068fc378daa952ba7f163c4a11628f55a4df523b3ef83604051620001f891815260200190565b60405180910390a3505050565b634e487b7160e01b600052604160045260246000fd5b600181811c908216806200023057607f821691505b6020821081036200025157634e487b7160e01b600052602260045260246000fd5b50919050565b601f821115620002a7576000816000526020600020601f850160051c81016020861015620002825750805b601f850160051c820191505b81811015620002a3578281556001016200028e565b5050505b505050565b81516001600160401b03811115620002c857620002c862000205565b620002e081620002d984546200021b565b8462000257565b602080601f831160018114620003185760008415620002ff5750858301515b600019600386901b1c1916600185901b178555620002a3565b600085815260208120601f198616915b82811015620003495788860151825594840194600190910190840162000328565b5085821015620003685787850151600019600388901b60f8161c191681555b5050505050600190811b01905550565b808201808211156200039a57634e487b7160e01b600052601160045260246000fd5b92915050565b61072280620003b06000396000f3fe608060405234801561001057600080fd5b50600436106100935760003560e01c8063313ce56711610066578063313ce567146100fe57806370a082311461010d57806395d89b4114610136578063a9059cbb1461013e578063dd62ed3e1461015157600080fd5b806306fdde0314610098578063095ea7b3146100b657806318160ddd146100d957806323b872dd146100eb575b600080fd5b6100a061018a565b6040516100ad919061056b565b60405180910390f35b6100c96100c43660046105d6565b61021c565b60405190151581526020016100ad565b6002545b6040519081526020016100ad565b6100c96100f9366004610600565b610236565b604051600681526020016100ad565b6100dd61011b36600461063c565b6001600160a01b031660009081526020819052604090205490565b6100a061025a565b6100c961014c3660046105d6565b610269565b6100dd61015f36600461065e565b6001600160a01b03918216600090815260016020908152604080832093909416825291909152205490565b60606003805461019990610691565b80601f01602080910402602001604051908101604052809291908181526020018280546101c590610691565b80156102125780601f106101e757610100808354040283529160200191610212565b820191906000526020600020905b8154815290600101906020018083116101f557829003601f168201915b5050505050905090565b60003361022a818585610277565b60019150505b92915050565b600033610244858285610289565b61024f85858561030d565b506001949350505050565b60606004805461019990610691565b60003361022a81858561030d565b610284838383600161036c565b505050565b6001600160a01b0383811660009081526001602090815260408083209386168352929052205460001981101561030757818110156102f857604051637dc7a0d960e11b81526001600160a01b038416600482015260248101829052604481018390526064015b60405180910390fd5b6103078484848403600061036c565b50505050565b6001600160a01b03831661033757604051634b637e8f60e11b8152600060048201526024016102ef565b6001600160a01b0382166103615760405163ec442f0560e01b8152600060048201526024016102ef565b610284838383610441565b6001600160a01b0384166103965760405163e602df0560e01b8152600060048201526024016102ef565b6001600160a01b0383166103c057604051634a1406b160e11b8152600060048201526024016102ef565b6001600160a01b038085166000908152600160209081526040808320938716835292905220829055801561030757826001600160a01b0316846001600160a01b03167f8c5be1e5ebec7d5bd14f71427d1e84f3dd0314c0f7b2291e5b200ac8c7c3b9258460405161043391815260200190565b60405180910390a350505050565b6001600160a01b03831661046c57806002600082825461046191906106cb565b909155506104de9050565b6001600160a01b038316600090815260208190526040902054818110156104bf5760405163391434e360e21b81526001600160a01b038516600482015260248101829052604481018390526064016102ef565b6001600160a01b03841660009081526020819052604090209082900390555b6001600160a01b0382166104fa57600280548290039055610519565b6001600160a01b03821660009081526020819052604090208054820190555b816001600160a01b0316836001600160a01b03167fddf252ad1be2c89b69c2b068fc378daa952ba7f163c4a11628f55a4df523b3ef8360405161055e91815260200190565b60405180910390a3505050565b60006020808352835180602085015260005b818110156105995785810183015185820160400152820161057d565b506000604082860101526040601f19601f8301168501019250505092915050565b80356001600160a01b03811681146105d157600080fd5b919050565b600080604083850312156105e957600080fd5b6105f2836105ba565b946020939093013593505050565b60008060006060848603121561061557600080fd5b61061e846105ba565b925061062c602085016105ba565b9150604084013590509250925092565b60006020828403121561064e57600080fd5b610657826105ba565b9392505050565b6000806040838503121561067157600080fd5b61067a836105ba565b9150610688602084016105ba565b90509250929050565b600181811c908216806106a557607f821691505b6020821081036106c557634e487b7160e01b600052602260045260246000fd5b50919050565b8082018082111561023057634e487b7160e01b600052601160045260246000fdfea264697066735822122048d2d674d3b2bcc6109990454e2da010d2e40834c03184a151eed88618567cc664736f6c63430008170033",
        "nonce": "0x5c",
        "chainId": "0x14a34"
      },
      "additionalContracts": [],
      "isFixedGasLimit": false
    },
    {
      "hash": "0xd00415946fb5e4127ab2168899a5544effdb615c7723dc650ea89eb5f2032d36",
      "transactionType": "CALL",
      "contractName": "MockUSDC",
      "contractAddress": "0x443ee7e41259b1178e6a271145fb396bbfc41299",
      "function": "approve(address,uint256)",
      "arguments": [
        "0x368E19f65cb5aB2E94538D3068CD4BbC147C2A96",
        "10000000"
      ],
      "transaction": {
        "from": "0x9d0616e0da062907a0e64c44bd09d0a3dd2e3408",
        "to": "0x443ee7e41259b1178e6a271145fb396bbfc41299",
        "gas": "0xf9ff",
        "value": "0x0",
        "input": "0x095ea7b3000000000000000000000000368e19f65cb5ab2e94538d3068cd4bbc147c2a960000000000000000000000000000000000000000000000000000000000989680",
        "nonce": "0x5d",
        "chainId": "0x14a34"
      },
      "additionalContracts": [],
      "isFixedGasLimit": false
    },
    {
      "hash": "0x8fb9811f0b6732d36d097d01a43b063c7e34e873976ef35bca4e0f0060d837d6",
      "transactionType": "CALL",
      "contractName": null,
      "contractAddress": "0x368e19f65cb5ab2e94538d3068cd4bbc147c2a96",
      "function": "creatorCreatingCondition(address,bytes32,address,bytes32,uint256[],uint256,address)",
      "arguments": [
        "0x443eE7e41259B1178E6A271145FB396bbfc41299",
        "0x0000000000000000000000000000000000000000000000000000000000000000",
        "0x00000000000000000000000000000000000a12ce",
        "0x9f63d38b3ae4882f8483be3b2264cdd639a73ee85dfb1d2af1e7b8506419632f",
        "[1, 2]",
        "10000000",
        "0x00000000000000000000000000000000000A11cE"
      ],
      "transaction": {
        "from": "0x9d0616e0da062907a0e64c44bd09d0a3dd2e3408",
        "to": "0x368e19f65cb5ab2e94538d3068cd4bbc147c2a96",
        "gas": "0x3c67e",
        "value": "0x0",
        "input": "0x2d9d45ae000000000000000000000000443ee7e41259b1178e6a271145fb396bbfc41299000000000000000000000000000000000000000000000000000000000000000000000000000000000000000000000000000000000000000000000000000a12ce9f63d38b3ae4882f8483be3b2264cdd639a73ee85dfb1d2af1e7b8506419632f00000000000000000000000000000000000000000000000000000000000000e0000000000000000000000000000000000000000000000000000000000098968000000000000000000000000000000000000000000000000000000000000a11ce000000000000000000000000000000000000000000000000000000000000000200000000000000000000000000000000000000000000000000000000000000010000000000000000000000000000000000000000000000000000000000000002",
        "nonce": "0x5e",
        "chainId": "0x14a34"
      },
      "additionalContracts": [],
      "isFixedGasLimit": false
    }
  ],
  "receipts": [
    {
      "status": "0x1",
      "cumulativeGasUsed": "0x8905c8",
      "logs": [
        {
          "address": "0x443ee7e41259b1178e6a271145fb396bbfc41299",
          "topics": [
            "0xddf252ad1be2c89b69c2b068fc378daa952ba7f163c4a11628f55a4df523b3ef",
            "0x0000000000000000000000000000000000000000000000000000000000000000",
            "0x0000000000000000000000009d0616e0da062907a0e64c44bd09d0a3dd2e3408"
          ],
          "data": "0x000000000000000000000000000000000000000000000000000000003b9aca00",
          "blockHash": "0x149ce156ac0585f6f2607f3ee76e18674e3b057956b37758de6e1ca65a857296",
          "blockNumber": "0x17652e2",
          "transactionHash": "0xc4cb696bd309853d3a79ad48e5cce97d23d8098485851453bd11e59064bec0f6",
          "transactionIndex": "0x55",
          "logIndex": "0xbf",
          "removed": false
        }
      ],
      "logsBloom": "0x00000000000000000000000000000000000000000000000000000000000000000000000000000000000000000000000000000000000000040000000000000000000000000000000000000008000000000000000000000004000000000000000000000000020000000000002000000800000000000000000000000010000000000000000000000000000800000040000000000000000000000000000000000000000000000000000000000000000000000000000000000000000000000000000000000002000000000000000000000000000000000000000000000000000020000000000000000080000000000000000000000000000000000000000000000000",
      "type": "0x0",
      "transactionHash": "0xc4cb696bd309853d3a79ad48e5cce97d23d8098485851453bd11e59064bec0f6",
      "transactionIndex": "0x55",
      "blockHash": "0x149ce156ac0585f6f2607f3ee76e18674e3b057956b37758de6e1ca65a857296",
      "blockNumber": "0x17652e2",
      "gasUsed": "0x87051",
      "effectiveGasPrice": "0xf556b",
      "from": "0x9d0616e0da062907a0e64c44bd09d0a3dd2e3408",
      "to": null,
      "contractAddress": "0x443ee7e41259b1178e6a271145fb396bbfc41299",
      "l1BaseFeeScalar": "0x44d",
      "l1BlobBaseFee": "0x9567a8",
      "l1BlobBaseFeeScalar": "0xa118b",
      "l1Fee": "0x1134334e10",
      "l1GasPrice": "0x819dc976",
      "l1GasUsed": "0x6727"
    },
    {
      "status": "0x1",
      "cumulativeGasUsed": "0x89bac7",
      "logs": [
        {
          "address": "0x443ee7e41259b1178e6a271145fb396bbfc41299",
          "topics": [
            "0x8c5be1e5ebec7d5bd14f71427d1e84f3dd0314c0f7b2291e5b200ac8c7c3b925",
            "0x0000000000000000000000009d0616e0da062907a0e64c44bd09d0a3dd2e3408",
            "0x000000000000000000000000368e19f65cb5ab2e94538d3068cd4bbc147c2a96"
          ],
          "data": "0x0000000000000000000000000000000000000000000000000000000000989680",
          "blockHash": "0x149ce156ac0585f6f2607f3ee76e18674e3b057956b37758de6e1ca65a857296",
          "blockNumber": "0x17652e2",
          "transactionHash": "0xd00415946fb5e4127ab2168899a5544effdb615c7723dc650ea89eb5f2032d36",
          "transactionIndex": "0x56",
          "logIndex": "0xc0",
          "removed": false
        }
      ],
      "logsBloom": "0x00000000000000000000000000000000000000000000000000000000000000000000000000000000000000000000000000000000000000040000000000200000000000000000000000000000000000000000000000000004000000000000000000000000000000000000002000000000000000000000000000000000000000000000000000000000000800000040000000000000000000000000000000000000021000000000000000000000000000000000000000000000000000000000000000000000000000000000000000000000000000040000000000000000000000000010000000000080000000000000000010000000000000000000000000000000",
      "type": "0x0",
      "transactionHash": "0xd00415946fb5e4127ab2168899a5544effdb615c7723dc650ea89eb5f2032d36",
      "transactionIndex": "0x56",
      "blockHash": "0x149ce156ac0585f6f2607f3ee76e18674e3b057956b37758de6e1ca65a857296",
      "blockNumber": "0x17652e2",
      "gasUsed": "0xb4ff",
      "effectiveGasPrice": "0xf556b",
      "from": "0x9d0616e0da062907a0e64c44bd09d0a3dd2e3408",
      "to": "0x443ee7e41259b1178e6a271145fb396bbfc41299",
      "contractAddress": null,
      "l1BaseFeeScalar": "0x44d",
      "l1BlobBaseFee": "0x9567a8",
      "l1BlobBaseFeeScalar": "0xa118b",
      "l1Fee": "0x10ad7889d",
      "l1GasPrice": "0x819dc976",
      "l1GasUsed": "0x640"
    },
    {
      "status": "0x1",
      "cumulativeGasUsed": "0x8c4fa1",
      "logs": [
        {
          "address": "0x368e19f65cb5ab2e94538d3068cd4bbc147c2a96",
          "topics": [
            "0xab3760c3bd2bb38b5bcf54dc79802ed67338b4cf29f3054ded67ed24661e4177",
            "0xf8017ffb792ca1fb925602d4e6f46d7383f10a3c6dd2286490a9f9ebec23aa4f",
            "0x00000000000000000000000000000000000000000000000000000000000a12ce",
            "0x9f63d38b3ae4882f8483be3b2264cdd639a73ee85dfb1d2af1e7b8506419632f"
          ],
          "data": "0x0000000000000000000000000000000000000000000000000000000000000002",
          "blockHash": "0x149ce156ac0585f6f2607f3ee76e18674e3b057956b37758de6e1ca65a857296",
          "blockNumber": "0x17652e2",
          "transactionHash": "0x8fb9811f0b6732d36d097d01a43b063c7e34e873976ef35bca4e0f0060d837d6",
          "transactionIndex": "0x57",
          "logIndex": "0xc1",
          "removed": false
        },
        {
          "address": "0x443ee7e41259b1178e6a271145fb396bbfc41299",
          "topics": [
            "0xddf252ad1be2c89b69c2b068fc378daa952ba7f163c4a11628f55a4df523b3ef",
            "0x0000000000000000000000009d0616e0da062907a0e64c44bd09d0a3dd2e3408",
            "0x000000000000000000000000368e19f65cb5ab2e94538d3068cd4bbc147c2a96"
          ],
          "data": "0x0000000000000000000000000000000000000000000000000000000000989680",
          "blockHash": "0x149ce156ac0585f6f2607f3ee76e18674e3b057956b37758de6e1ca65a857296",
          "blockNumber": "0x17652e2",
          "transactionHash": "0x8fb9811f0b6732d36d097d01a43b063c7e34e873976ef35bca4e0f0060d837d6",
          "transactionIndex": "0x57",
          "logIndex": "0xc2",
          "removed": false
        },
        {
          "address": "0x368e19f65cb5ab2e94538d3068cd4bbc147c2a96",
          "topics": [
            "0x4a39dc06d4c0dbc64b70af90fd698a233a518aa5d07e595d983b8c0526c8f7fb",
            "0x0000000000000000000000009d0616e0da062907a0e64c44bd09d0a3dd2e3408",
            "0x0000000000000000000000000000000000000000000000000000000000000000",
            "0x00000000000000000000000000000000000000000000000000000000000a11ce"
          ],
          "data": "0x000000000000000000000000000000000000000000000000000000000000004000000000000000000000000000000000000000000000000000000000000000a00000000000000000000000000000000000000000000000000000000000000002f59c9030fe7388d46ff03f1f202195a5a59f5dc236f6b700f69dc899fc6cd9dc2e028613f8caab4a98d56eebfad7ed3e7c39bb6b6e6a312d1e14fdb20f02da5a000000000000000000000000000000000000000000000000000000000000000200000000000000000000000000000000000000000000000000000000009896800000000000000000000000000000000000000000000000000000000000989680",
          "blockHash": "0x149ce156ac0585f6f2607f3ee76e18674e3b057956b37758de6e1ca65a857296",
          "blockNumber": "0x17652e2",
          "transactionHash": "0x8fb9811f0b6732d36d097d01a43b063c7e34e873976ef35bca4e0f0060d837d6",
          "transactionIndex": "0x57",
          "logIndex": "0xc3",
          "removed": false
        },
        {
          "address": "0x368e19f65cb5ab2e94538d3068cd4bbc147c2a96",
          "topics": [
            "0x2e6bb91f8cbcda0c93623c54d0403a43514fabc40084ec96b6d5379a74786298",
            "0x00000000000000000000000000000000000000000000000000000000000a11ce",
            "0x0000000000000000000000000000000000000000000000000000000000000000",
            "0xf8017ffb792ca1fb925602d4e6f46d7383f10a3c6dd2286490a9f9ebec23aa4f"
          ],
          "data": "0x000000000000000000000000443ee7e41259b1178e6a271145fb396bbfc4129900000000000000000000000000000000000000000000000000000000000000600000000000000000000000000000000000000000000000000000000000989680000000000000000000000000000000000000000000000000000000000000000200000000000000000000000000000000000000000000000000000000000000010000000000000000000000000000000000000000000000000000000000000002",
          "blockHash": "0x149ce156ac0585f6f2607f3ee76e18674e3b057956b37758de6e1ca65a857296",
          "blockNumber": "0x17652e2",
          "transactionHash": "0x8fb9811f0b6732d36d097d01a43b063c7e34e873976ef35bca4e0f0060d837d6",
          "transactionIndex": "0x57",
          "logIndex": "0xc4",
          "removed": false
        }
      ],
      "logsBloom": "0x00000000000400000000000000000000000000000000000000000000000000000000400000000000010000002000000000002000000000040000000100000000000000000000000010000008000000100000010000000004000000000000000000800000020000000001002000000804000000000800000000000010000000000002020000000000000800000040000000020000000000000000000008000000001000000000000000000000000000000020000000008000000000004000000000000002000000000000000000000000000400040000000000000000000020000000000000000080000000000000000010020000000000000000000002000000",
      "type": "0x0",
      "transactionHash": "0x8fb9811f0b6732d36d097d01a43b063c7e34e873976ef35bca4e0f0060d837d6",
      "transactionIndex": "0x57",
      "blockHash": "0x149ce156ac0585f6f2607f3ee76e18674e3b057956b37758de6e1ca65a857296",
      "blockNumber": "0x17652e2",
      "gasUsed": "0x294da",
      "effectiveGasPrice": "0xf556b",
      "from": "0x9d0616e0da062907a0e64c44bd09d0a3dd2e3408",
      "to": "0x368e19f65cb5ab2e94538d3068cd4bbc147c2a96",
      "contractAddress": null,
      "l1BaseFeeScalar": "0x44d",
      "l1BlobBaseFee": "0x9567a8",
      "l1BlobBaseFeeScalar": "0xa118b",
      "l1Fee": "0x180211de8",
      "l1GasPrice": "0x819dc976",
      "l1GasUsed": "0x8ff"
    }
  ],
  "libraries": [],
  "pending": [],
  "returns": {},
  "timestamp": 1744831659,
  "chain": 84532,
  "commit": "753da14"
}