{
  "transactions": [
    {
      "hash": "0x654d361e94ce0acf3e641f6b7a68a1e942de218bce324b1b0e582c0260dba7fa",
      "transactionType": "CREATE",
      "contractName": "MockUsdc",
      "contractAddress": "0x91eecbc088db1eafab7f21c249dad970f8555e59",
      "function": null,
      "arguments": null,
      "transaction": {
        "from": "0x9d0616e0da062907a0e64c44bd09d0a3dd2e3408",
        "gas": "0xaf787",
        "value": "0x0",
        "input": "0x60806040523480156200001157600080fd5b50604051806040016040528060098152602001684d6f636b205553444360b81b815250604051806040016040528060048152602001635553444360e01b8152508160039081620000629190620002ac565b506004620000718282620002ac565b5050506200008a33633b9aca006200009060201b60201c565b620003a0565b6001600160a01b038216620000c05760405163ec442f0560e01b8152600060048201526024015b60405180910390fd5b620000ce60008383620000d2565b5050565b6001600160a01b03831662000101578060026000828254620000f5919062000378565b90915550620001759050565b6001600160a01b03831660009081526020819052604090205481811015620001565760405163391434e360e21b81526001600160a01b03851660048201526024810182905260448101839052606401620000b7565b6001600160a01b03841660009081526020819052604090209082900390555b6001600160a01b0382166200019357600280548290039055620001b2565b6001600160a01b03821660009081526020819052604090208054820190555b816001600160a01b0316836001600160a01b03167fddf252ad1be2c89b69c2b068fc378daa952ba7f163c4a11628f55a4df523b3ef83604051620001f891815260200190565b60405180910390a3505050565b634e487b7160e01b600052604160045260246000fd5b600181811c908216806200023057607f821691505b6020821081036200025157634e487b7160e01b600052602260045260246000fd5b50919050565b601f821115620002a7576000816000526020600020601f850160051c81016020861015620002825750805b601f850160051c820191505b81811015620002a3578281556001016200028e565b5050505b505050565b81516001600160401b03811115620002c857620002c862000205565b620002e081620002d984546200021b565b8462000257565b602080601f831160018114620003185760008415620002ff5750858301515b600019600386901b1c1916600185901b178555620002a3565b600085815260208120601f198616915b82811015620003495788860151825594840194600190910190840162000328565b5085821015620003685787850151600019600388901b60f8161c191681555b5050505050600190811b01905550565b808201808211156200039a57634e487b7160e01b600052601160045260246000fd5b92915050565b61072280620003b06000396000f3fe608060405234801561001057600080fd5b50600436106100935760003560e01c8063313ce56711610066578063313ce567146100fe57806370a082311461010d57806395d89b4114610136578063a9059cbb1461013e578063dd62ed3e1461015157600080fd5b806306fdde0314610098578063095ea7b3146100b657806318160ddd146100d957806323b872dd146100eb575b600080fd5b6100a061018a565b6040516100ad919061056b565b60405180910390f35b6100c96100c43660046105d6565b61021c565b60405190151581526020016100ad565b6002545b6040519081526020016100ad565b6100c96100f9366004610600565b610236565b604051600681526020016100ad565b6100dd61011b36600461063c565b6001600160a01b031660009081526020819052604090205490565b6100a061025a565b6100c961014c3660046105d6565b610269565b6100dd61015f36600461065e565b6001600160a01b03918216600090815260016020908152604080832093909416825291909152205490565b60606003805461019990610691565b80601f01602080910402602001604051908101604052809291908181526020018280546101c590610691565b80156102125780601f106101e757610100808354040283529160200191610212565b820191906000526020600020905b8154815290600101906020018083116101f557829003601f168201915b5050505050905090565b60003361022a818585610277565b60019150505b92915050565b600033610244858285610289565b61024f85858561030d565b506001949350505050565b60606004805461019990610691565b60003361022a81858561030d565b610284838383600161036c565b505050565b6001600160a01b0383811660009081526001602090815260408083209386168352929052205460001981101561030757818110156102f857604051637dc7a0d960e11b81526001600160a01b038416600482015260248101829052604481018390526064015b60405180910390fd5b6103078484848403600061036c565b50505050565b6001600160a01b03831661033757604051634b637e8f60e11b8152600060048201526024016102ef565b6001600160a01b0382166103615760405163ec442f0560e01b8152600060048201526024016102ef565b610284838383610441565b6001600160a01b0384166103965760405163e602df0560e01b8152600060048201526024016102ef565b6001600160a01b0383166103c057604051634a1406b160e11b8152600060048201526024016102ef565b6001600160a01b038085166000908152600160209081526040808320938716835292905220829055801561030757826001600160a01b0316846001600160a01b03167f8c5be1e5ebec7d5bd14f71427d1e84f3dd0314c0f7b2291e5b200ac8c7c3b9258460405161043391815260200190565b60405180910390a350505050565b6001600160a01b03831661046c57806002600082825461046191906106cb565b909155506104de9050565b6001600160a01b038316600090815260208190526040902054818110156104bf5760405163391434e360e21b81526001600160a01b038516600482015260248101829052604481018390526064016102ef565b6001600160a01b03841660009081526020819052604090209082900390555b6001600160a01b0382166104fa57600280548290039055610519565b6001600160a01b03821660009081526020819052604090208054820190555b816001600160a01b0316836001600160a01b03167fddf252ad1be2c89b69c2b068fc378daa952ba7f163c4a11628f55a4df523b3ef8360405161055e91815260200190565b60405180910390a3505050565b60006020808352835180602085015260005b818110156105995785810183015185820160400152820161057d565b506000604082860101526040601f19601f8301168501019250505092915050565b80356001600160a01b03811681146105d157600080fd5b919050565b600080604083850312156105e957600080fd5b6105f2836105ba565b946020939093013593505050565b60008060006060848603121561061557600080fd5b61061e846105ba565b925061062c602085016105ba565b9150604084013590509250925092565b60006020828403121561064e57600080fd5b610657826105ba565b9392505050565b6000806040838503121561067157600080fd5b61067a836105ba565b9150610688602084016105ba565b90509250929050565b600181811c908216806106a557607f821691505b6020821081036106c557634e487b7160e01b600052602260045260246000fd5b50919050565b8082018082111561023057634e487b7160e01b600052601160045260246000fdfea26469706673582212206bb2160b9fbcce4dc47fab9476b6ee177119bfcf35bfc1f0bc98f857c9e5ef1664736f6c63430008170033",
        "nonce": "0x5a",
        "chainId": "0x14a34"
      },
      "additionalContracts": [],
      "isFixedGasLimit": false
    },
    {
      "hash": "0xaf4522ca57215df9a77e4fbb6bcc6747fe7bf1e94e56af32e3661346fc632c0e",
      "transactionType": "CALL",
      "contractName": "MockUsdc",
      "contractAddress": "0x91eecbc088db1eafab7f21c249dad970f8555e59",
      "function": "transfer(address,uint256)",
      "arguments": [
        "0xe05fcC23807536bEe418f142D19fa0d21BB0cfF7",
        "25000000"
      ],
      "transaction": {
        "from": "0x9d0616e0da062907a0e64c44bd09d0a3dd2e3408",
        "to": "0x91eecbc088db1eafab7f21c249dad970f8555e59",
        "gas": "0x11662",
        "value": "0x0",
        "input": "0xa9059cbb000000000000000000000000e05fcc23807536bee418f142d19fa0d21bb0cff700000000000000000000000000000000000000000000000000000000017d7840",
        "nonce": "0x5b",
        "chainId": "0x14a34"
      },
      "additionalContracts": [],
      "isFixedGasLimit": false
    },
    {
      "hash": null,
      "transactionType": "CALL",
      "contractName": "MockUsdc",
      "contractAddress": "0x91eecbc088db1eafab7f21c249dad970f8555e59",
      "function": "approve(address,uint256)",
      "arguments": [
        "0x368E19f65cb5aB2E94538D3068CD4BbC147C2A96",
        "10000000"
      ],
      "transaction": {
        "from": "0xe05fcc23807536bee418f142d19fa0d21bb0cff7",
        "to": "0x91eecbc088db1eafab7f21c249dad970f8555e59",
        "gas": "0xf9ff",
        "value": "0x0",
        "input": "0x095ea7b3000000000000000000000000368e19f65cb5ab2e94538d3068cd4bbc147c2a960000000000000000000000000000000000000000000000000000000000989680",
        "nonce": "0x0",
        "chainId": "0x14a34"
      },
      "additionalContracts": [],
      "isFixedGasLimit": false
    },
    {
      "hash": null,
      "transactionType": "CALL",
      "contractName": null,
      "contractAddress": "0x368e19f65cb5ab2e94538d3068cd4bbc147c2a96",
      "function": "creatorCreatingCondition(address,bytes32,address,bytes32,uint256[],uint256,address)",
      "arguments": [
        "0x91eecBC088DB1EafAB7F21C249DaD970f8555E59",
        "0x0000000000000000000000000000000000000000000000000000000000000000",
        "0xDd4eAF1A51Bd0990cD5f88b8EEe51aB23bFF6B1c",
        "0x9f63d38b3ae4882f8483be3b2264cdd639a73ee85dfb1d2af1e7b8506419632f",
        "[1, 2]",
        "10000000",
        "0xe05fcC23807536bEe418f142D19fa0d21BB0cfF7"
      ],
      "transaction": {
        "from": "0xe05fcc23807536bee418f142d19fa0d21bb0cff7",
        "to": "0x368e19f65cb5ab2e94538d3068cd4bbc147c2a96",
        "gas": "0x38582",
        "value": "0x0",
        "input": "0x2d9d45ae00000000000000000000000091eecbc088db1eafab7f21c249dad970f8555e590000000000000000000000000000000000000000000000000000000000000000000000000000000000000000dd4eaf1a51bd0990cd5f88b8eee51ab23bff6b1c9f63d38b3ae4882f8483be3b2264cdd639a73ee85dfb1d2af1e7b8506419632f00000000000000000000000000000000000000000000000000000000000000e00000000000000000000000000000000000000000000000000000000000989680000000000000000000000000e05fcc23807536bee418f142d19fa0d21bb0cff7000000000000000000000000000000000000000000000000000000000000000200000000000000000000000000000000000000000000000000000000000000010000000000000000000000000000000000000000000000000000000000000002",
        "nonce": "0x1",
        "chainId": "0x14a34"
      },
      "additionalContracts": [],
      "isFixedGasLimit": false
    },
    {
      "hash": null,
      "transactionType": "CALL",
      "contractName": null,
      "contractAddress": "0x368e19f65cb5ab2e94538d3068cd4bbc147c2a96",
      "function": "setApprovalForAll(address,bool)",
      "arguments": [
        "0x9D0616E0DA062907A0E64c44bD09d0A3DD2e3408",
        "true"
      ],
      "transaction": {
        "from": "0xe05fcc23807536bee418f142d19fa0d21bb0cff7",
        "to": "0x368e19f65cb5ab2e94538d3068cd4bbc147c2a96",
        "gas": "0xf961",
        "value": "0x0",
        "input": "0xa22cb4650000000000000000000000009d0616e0da062907a0e64c44bd09d0a3dd2e34080000000000000000000000000000000000000000000000000000000000000001",
        "nonce": "0x2",
        "chainId": "0x14a34"
      },
      "additionalContracts": [],
      "isFixedGasLimit": false
    },
    {
      "hash": null,
      "transactionType": "CALL",
      "contractName": null,
      "contractAddress": "0x368e19f65cb5ab2e94538d3068cd4bbc147c2a96",
      "function": "safeTransferFrom(address,address,uint256,uint256,bytes)",
      "arguments": [
        "0xe05fcC23807536bEe418f142D19fa0d21BB0cfF7",
        "0x000000000000000000000000000000000000bEEF",
        "87894779254988244032661288554010010235042530771543550615243785419519631089004",
        "7",
        "0x3078"
      ],
      "transaction": {
        "from": "0x9d0616e0da062907a0e64c44bd09d0a3dd2e3408",
        "to": "0x368e19f65cb5ab2e94538d3068cd4bbc147c2a96",
        "gas": "0x1428d",
        "value": "0x0",
        "input": "0xf242432a000000000000000000000000e05fcc23807536bee418f142d19fa0d21bb0cff7000000000000000000000000000000000000000000000000000000000000beefc252ae9e42580621fae5f1119f4f9eb87170cd3b64a0c067d3ed34d0bf90dd6c000000000000000000000000000000000000000000000000000000000000000700000000000000000000000000000000000000000000000000000000000000a000000000000000000000000000000000000000000000000000000000000000023078000000000000000000000000000000000000000000000000000000000000",
        "nonce": "0x5c",
        "chainId": "0x14a34"
      },
      "additionalContracts": [],
      "isFixedGasLimit": false
    },
    {
      "hash": null,
      "transactionType": "CALL",
      "contractName": null,
      "contractAddress": "0x368e19f65cb5ab2e94538d3068cd4bbc147c2a96",
      "function": "reportPayouts(bytes32,uint256[])",
      "arguments": [
        "0x9f63d38b3ae4882f8483be3b2264cdd639a73ee85dfb1d2af1e7b8506419632f",
        "[1, 0]"
      ],
      "transaction": {
        "from": "0xdd4eaf1a51bd0990cd5f88b8eee51ab23bff6b1c",
        "to": "0x368e19f65cb5ab2e94538d3068cd4bbc147c2a96",
        "gas": "0x1a0e6",
        "value": "0x0",
        "input": "0xc49298ac9f63d38b3ae4882f8483be3b2264cdd639a73ee85dfb1d2af1e7b8506419632f0000000000000000000000000000000000000000000000000000000000000040000000000000000000000000000000000000000000000000000000000000000200000000000000000000000000000000000000000000000000000000000000010000000000000000000000000000000000000000000000000000000000000000",
        "nonce": "0x0",
        "chainId": "0x14a34"
      },
      "additionalContracts": [],
      "isFixedGasLimit": false
    },
    {
      "hash": null,
      "transactionType": "CALL",
      "contractName": null,
      "contractAddress": "0x368e19f65cb5ab2e94538d3068cd4bbc147c2a96",
      "function": "redeemPositions(address,bytes32,bytes32,uint256[])",
      "arguments": [
        "0x91eecBC088DB1EafAB7F21C249DaD970f8555E59",
        "0x0000000000000000000000000000000000000000000000000000000000000000",
        "0x8469f50a6af02223373d46cee6e786af26c65424f839392b0c59acf74a6db174",
        "[1, 2]"
      ],
      "transaction": {
        "from": "0xe05fcc23807536bee418f142d19fa0d21bb0cff7",
        "to": "0x368e19f65cb5ab2e94538d3068cd4bbc147c2a96",
        "gas": "0x165d1",
        "value": "0x0",
        "input": "0x01b7037c00000000000000000000000091eecbc088db1eafab7f21c249dad970f8555e5900000000000000000000000000000000000000000000000000000000000000008469f50a6af02223373d46cee6e786af26c65424f839392b0c59acf74a6db1740000000000000000000000000000000000000000000000000000000000000080000000000000000000000000000000000000000000000000000000000000000200000000000000000000000000000000000000000000000000000000000000010000000000000000000000000000000000000000000000000000000000000002",
        "nonce": "0x3",
        "chainId": "0x14a34"
      },
      "additionalContracts": [],
      "isFixedGasLimit": false
    },
    {
      "hash": null,
      "transactionType": "CALL",
      "contractName": "MockUsdc",
      "contractAddress": "0x91eecbc088db1eafab7f21c249dad970f8555e59",
      "function": "transfer(address,uint256)",
      "arguments": [
        "0x9D0616E0DA062907A0E64c44bD09d0A3DD2e3408",
        "4999998"
      ],
      "transaction": {
        "from": "0xe05fcc23807536bee418f142d19fa0d21bb0cff7",
        "to": "0x91eecbc088db1eafab7f21c249dad970f8555e59",
        "gas": "0xba0e",
        "value": "0x0",
        "input": "0xa9059cbb0000000000000000000000009d0616e0da062907a0e64c44bd09d0a3dd2e340800000000000000000000000000000000000000000000000000000000004c4b3e",
        "nonce": "0x4",
        "chainId": "0x14a34"
      },
      "additionalContracts": [],
      "isFixedGasLimit": false
    },
    {
      "hash": null,
      "transactionType": "CALL",
      "contractName": "MockUsdc",
      "contractAddress": "0x91eecbc088db1eafab7f21c249dad970f8555e59",
      "function": "transfer(address,uint256)",
      "arguments": [
        "0x311Bd9281B24464DA9FB758Ab6FCd7dc64dEC6DA",
        "19999995"
      ],
      "transaction": {
        "from": "0xe05fcc23807536bee418f142d19fa0d21bb0cff7",
        "to": "0x91eecbc088db1eafab7f21c249dad970f8555e59",
        "gas": "0xfc7c",
        "value": "0x0",
        "input": "0xa9059cbb000000000000000000000000311bd9281b24464da9fb758ab6fcd7dc64dec6da0000000000000000000000000000000000000000000000000000000001312cfb",
        "nonce": "0x5",
        "chainId": "0x14a34"
      },
      "additionalContracts": [],
      "isFixedGasLimit": false
    }
  ],
  "receipts": [
    {
      "status": "0x1",
      "cumulativeGasUsed": "0x6b0900",
      "logs": [
        {
          "address": "0x91eecbc088db1eafab7f21c249dad970f8555e59",
          "topics": [
            "0xddf252ad1be2c89b69c2b068fc378daa952ba7f163c4a11628f55a4df523b3ef",
            "0x0000000000000000000000000000000000000000000000000000000000000000",
            "0x0000000000000000000000009d0616e0da062907a0e64c44bd09d0a3dd2e3408"
          ],
          "data": "0x000000000000000000000000000000000000000000000000000000003b9aca00",
          "blockHash": "0x8445a0b6d5ff68460e491d9fb8289300a514705933260d79b4f5210277aabf7f",
          "blockNumber": "0x17651ce",
          "transactionHash": "0x654d361e94ce0acf3e641f6b7a68a1e942de218bce324b1b0e582c0260dba7fa",
          "transactionIndex": "0x4f",
          "logIndex": "0x6c",
          "removed": false
        }
      ],
      "logsBloom": "0x00000000000000000400000000000000000000000000000000000000000000000000000000000000000000000000000000000000000000040000000000000000000000000000000000000008000000000000000000000000000000000000000000000000020000000000000000000808000000000000000000000010000000000000000100000000000000000040000000000000000000000000000000000000000000000000000000000000000000000000000000000000000000000000000000000002000000000000000000000000000000000000000000000000000020000000000000000080000000000000000000000000000000000000000000000000",
      "type": "0x0",
      "transactionHash": "0x654d361e94ce0acf3e641f6b7a68a1e942de218bce324b1b0e582c0260dba7fa",
      "transactionIndex": "0x4f",
      "blockHash": "0x8445a0b6d5ff68460e491d9fb8289300a514705933260d79b4f5210277aabf7f",
      "blockNumber": "0x17651ce",
      "gasUsed": "0x87051",
      "effectiveGasPrice": "0xf57f1",
      "from": "0x9d0616e0da062907a0e64c44bd09d0a3dd2e3408",
      "to": null,
      "contractAddress": "0x91eecbc088db1eafab7f21c249dad970f8555e59",
      "l1BaseFeeScalar": "0x44d",
      "l1BlobBaseFee": "0x9d6f2e",
      "l1BlobBaseFeeScalar": "0xa118b",
      "l1Fee": "0x152be2526d",
      "l1GasPrice": "0xa35febd3",
      "l1GasUsed": "0x6727"
    },
    {
      "status": "0x1",
      "cumulativeGasUsed": "0x3e7a05",
      "logs": [
        {
          "address": "0x91eecbc088db1eafab7f21c249dad970f8555e59",
          "topics": [
            "0xddf252ad1be2c89b69c2b068fc378daa952ba7f163c4a11628f55a4df523b3ef",
            "0x0000000000000000000000009d0616e0da062907a0e64c44bd09d0a3dd2e3408",
            "0x000000000000000000000000e05fcc23807536bee418f142d19fa0d21bb0cff7"
          ],
          "data": "0x00000000000000000000000000000000000000000000000000000000017d7840",
          "blockHash": "0xc4340fadb6b44e9800b48f51bf2a90ead3d5cb5e9534cdc238dade0dfac4b8a8",
          "blockNumber": "0x17651cf",
          "transactionHash": "0xaf4522ca57215df9a77e4fbb6bcc6747fe7bf1e94e56af32e3661346fc632c0e",
          "transactionIndex": "0x3b",
          "logIndex": "0x89",
          "removed": false
        }
      ],
      "logsBloom": "0x00000000000000000400000000000000000000000000000000000000000000000000000000000800000000000000000000000000000000040000000000000000000000000000000000000008000000000200000000000000000000000000000000000000000000000000000000000008000000000000000000000010000000000000000100000000000000000040000000000000000000000000000000000000000000000000000000000000000000000000000000000000000000000000400000000002000000000000000000000000000000000000000000000000000000000000000000000080000000000000000000000000000000000000000000000000",
      "type": "0x0",
      "transactionHash": "0xaf4522ca57215df9a77e4fbb6bcc6747fe7bf1e94e56af32e3661346fc632c0e",
      "transactionIndex": "0x3b",
      "blockHash": "0xc4340fadb6b44e9800b48f51bf2a90ead3d5cb5e9534cdc238dade0dfac4b8a8",
      "blockNumber": "0x17651cf",
      "gasUsed": "0xc98c",
      "effectiveGasPrice": "0xf57f1",
      "from": "0x9d0616e0da062907a0e64c44bd09d0a3dd2e3408",
      "to": "0x91eecbc088db1eafab7f21c249dad970f8555e59",
      "contractAddress": null,
      "l1BaseFeeScalar": "0x44d",
      "l1BlobBaseFee": "0x9d6f2e",
      "l1BlobBaseFeeScalar": "0xa118b",
      "l1Fee": "0x148615659",
      "l1GasPrice": "0xa35febd3",
      "l1GasUsed": "0x640"
    }
  ],
  "libraries": [],
  "pending": [],
  "returns": {},
  "timestamp": 1744831110,
  "chain": 84532,
  "commit": "753da14"
}